{
  "transactions": [
    {
      "hash": "0xb8adb3c064d0318d34bf308b0cd082e26b3bd5b90489f5467804ec3e64f012a7",
      "transactionType": "CALL",
      "contractName": null,
      "contractAddress": "0x779877A7B0D9E8603169DdbD7836e478b4624789",
      "function": "transferAndCall(address,uint256,bytes)",
      "arguments": [
        "0x9DdfaCa8183c41ad55329BdeeD9F6A8d53168B1B",
        "3000000000000000000",
        "0x8c9e89a4fc2a85c5e4b4d4cdc2e1cb4015d4e5670f10e25703e9df177b11144b"
      ],
      "transaction": {
        "from": "0x4f98e7507c578e4d31B5b874E9a7C910aA7C4ce1",
        "to": "0x779877A7B0D9E8603169DdbD7836e478b4624789",
        "gas": "0x1c1ff",
        "value": "0x0",
        "input": "0x4000aea00000000000000000000000009ddfaca8183c41ad55329bdeed9f6a8d53168b1b00000000000000000000000000000000000000000000000029a2241af62c0000000000000000000000000000000000000000000000000000000000000000006000000000000000000000000000000000000000000000000000000000000000208c9e89a4fc2a85c5e4b4d4cdc2e1cb4015d4e5670f10e25703e9df177b11144b",
        "nonce": "0x59",
        "chainId": "0xaa36a7"
      },
      "additionalContracts": [],
      "isFixedGasLimit": false
    }
  ],
  "receipts": [
    {
      "status": "0x1",
      "cumulativeGasUsed": "0x55a86f",
      "logs": [
        {
          "address": "0x779877A7B0D9E8603169DdbD7836e478b4624789",
          "topics": [
            "0xddf252ad1be2c89b69c2b068fc378daa952ba7f163c4a11628f55a4df523b3ef",
            "0x0000000000000000000000004f98e7507c578e4d31b5b874e9a7c910aa7c4ce1",
            "0x0000000000000000000000009ddfaca8183c41ad55329bdeed9f6a8d53168b1b"
          ],
          "data": "0x00000000000000000000000000000000000000000000000029a2241af62c0000",
          "blockHash": "0xb5574d2b7628911e196d599b91ac4daf339748ccac0077d425fc2c9029fcdb34",
          "blockNumber": "0x693d08",
          "transactionHash": "0xb8adb3c064d0318d34bf308b0cd082e26b3bd5b90489f5467804ec3e64f012a7",
          "transactionIndex": "0x47",
          "logIndex": "0x4e",
          "removed": false
        },
        {
          "address": "0x779877A7B0D9E8603169DdbD7836e478b4624789",
          "topics": [
            "0xe19260aff97b920c7df27010903aeb9c8d2be5d310a2c67824cf3f15396e4c16",
            "0x0000000000000000000000004f98e7507c578e4d31b5b874e9a7c910aa7c4ce1",
            "0x0000000000000000000000009ddfaca8183c41ad55329bdeed9f6a8d53168b1b"
          ],
          "data": "0x00000000000000000000000000000000000000000000000029a2241af62c0000000000000000000000000000000000000000000000000000000000000000004000000000000000000000000000000000000000000000000000000000000000208c9e89a4fc2a85c5e4b4d4cdc2e1cb4015d4e5670f10e25703e9df177b11144b",
          "blockHash": "0xb5574d2b7628911e196d599b91ac4daf339748ccac0077d425fc2c9029fcdb34",
          "blockNumber": "0x693d08",
          "transactionHash": "0xb8adb3c064d0318d34bf308b0cd082e26b3bd5b90489f5467804ec3e64f012a7",
          "transactionIndex": "0x47",
          "logIndex": "0x4f",
          "removed": false
        },
        {
          "address": "0x9DdfaCa8183c41ad55329BdeeD9F6A8d53168B1B",
          "topics": [
            "0x1ced9348ff549fceab2ac57cd3a9de38edaaab274b725ee82c23e8fc8c4eec7a",
            "0x8c9e89a4fc2a85c5e4b4d4cdc2e1cb4015d4e5670f10e25703e9df177b11144b"
          ],
          "data": "0x000000000000000000000000000000000000000000000000000000000000000000000000000000000000000000000000000000000000000029a2241af62c0000",
          "blockHash": "0xb5574d2b7628911e196d599b91ac4daf339748ccac0077d425fc2c9029fcdb34",
          "blockNumber": "0x693d08",
          "transactionHash": "0xb8adb3c064d0318d34bf308b0cd082e26b3bd5b90489f5467804ec3e64f012a7",
          "transactionIndex": "0x47",
          "logIndex": "0x50",
          "removed": false
        }
      ],
      "logsBloom": "0x00000004000000000000000000000000000000000020000000000000020000000000000000000000000000000000000000000000000000000000000000000000000000000000000000000008400000000000000000001000000020000020000008000000000000000000000000000000000000000000000000000010000060000000000000000000000000010000800000000020000000000000000000000000000000000000000000000000010000000000000000000000000004000000000080000002010000000000000000000000000000000000000100000000000008000010000000000000800000000000000000000000000000000000000000000000",
      "type": "0x2",
      "transactionHash": "0xb8adb3c064d0318d34bf308b0cd082e26b3bd5b90489f5467804ec3e64f012a7",
      "transactionIndex": "0x47",
      "blockHash": "0xb5574d2b7628911e196d599b91ac4daf339748ccac0077d425fc2c9029fcdb34",
      "blockNumber": "0x693d08",
      "gasUsed": "0x133b1",
      "effectiveGasPrice": "0x3cbce3df3",
      "from": "0x4f98e7507c578e4d31B5b874E9a7C910aA7C4ce1",
      "to": "0x779877A7B0D9E8603169DdbD7836e478b4624789",
      "contractAddress": null
    }
  ],
  "libraries": [],
  "pending": [],
  "returns": {},
  "timestamp": 1729235355,
  "chain": 11155111,
  "commit": "cdda65a"
}